{
  "contractName": "Crowdsale",
  "abi": [
    {
      "constant": true,
      "inputs": [],
      "name": "rate",
      "outputs": [
        {
          "name": "",
          "type": "uint256"
        }
      ],
      "payable": false,
      "stateMutability": "view",
      "type": "function"
    },
    {
      "constant": true,
      "inputs": [],
      "name": "endTime",
      "outputs": [
        {
          "name": "",
          "type": "uint256"
        }
      ],
      "payable": false,
      "stateMutability": "view",
      "type": "function"
    },
    {
      "constant": true,
      "inputs": [],
      "name": "weiRaised",
      "outputs": [
        {
          "name": "",
          "type": "uint256"
        }
      ],
      "payable": false,
      "stateMutability": "view",
      "type": "function"
    },
    {
      "constant": true,
      "inputs": [],
      "name": "wallet",
      "outputs": [
        {
          "name": "",
          "type": "address"
        }
      ],
      "payable": false,
      "stateMutability": "view",
      "type": "function"
    },
    {
      "constant": true,
      "inputs": [],
      "name": "startTime",
      "outputs": [
        {
          "name": "",
          "type": "uint256"
        }
      ],
      "payable": false,
      "stateMutability": "view",
      "type": "function"
    },
    {
      "constant": false,
      "inputs": [
        {
          "name": "beneficiary",
          "type": "address"
        }
      ],
      "name": "buyTokens",
      "outputs": [],
      "payable": true,
      "stateMutability": "payable",
      "type": "function"
    },
    {
      "constant": true,
      "inputs": [],
      "name": "hasEnded",
      "outputs": [
        {
          "name": "",
          "type": "bool"
        }
      ],
      "payable": false,
      "stateMutability": "view",
      "type": "function"
    },
    {
      "constant": true,
      "inputs": [],
      "name": "token",
      "outputs": [
        {
          "name": "",
          "type": "address"
        }
      ],
      "payable": false,
      "stateMutability": "view",
      "type": "function"
    },
    {
      "inputs": [
        {
          "name": "_startTime",
          "type": "uint256"
        },
        {
          "name": "_endTime",
          "type": "uint256"
        },
        {
          "name": "_rate",
          "type": "uint256"
        },
        {
          "name": "_wallet",
          "type": "address"
        },
        {
          "name": "_token",
          "type": "address"
        }
      ],
      "payable": false,
      "stateMutability": "nonpayable",
      "type": "constructor"
    },
    {
      "payable": true,
      "stateMutability": "payable",
      "type": "fallback"
    },
    {
      "anonymous": false,
      "inputs": [
        {
          "indexed": true,
          "name": "purchaser",
          "type": "address"
        },
        {
          "indexed": true,
          "name": "beneficiary",
          "type": "address"
        },
        {
          "indexed": false,
          "name": "value",
          "type": "uint256"
        },
        {
          "indexed": false,
          "name": "amount",
          "type": "uint256"
        }
      ],
      "name": "TokenPurchase",
      "type": "event"
    }
  ],
  "bytecode": "0x6060604052341561000f57600080fd5b60405160a0806107668339810160405280805190602001909190805190602001909190805190602001909190805190602001909190805190602001909190505042851015151561005e57600080fd5b84841015151561006d57600080fd5b60008311151561007c57600080fd5b600073ffffffffffffffffffffffffffffffffffffffff168273ffffffffffffffffffffffffffffffffffffffff16141515156100b857600080fd5b600073ffffffffffffffffffffffffffffffffffffffff168173ffffffffffffffffffffffffffffffffffffffff16141515156100f457600080fd5b84600181905550836002819055508260048190555081600360006101000a81548173ffffffffffffffffffffffffffffffffffffffff021916908373ffffffffffffffffffffffffffffffffffffffff160217905550806000806101000a81548173ffffffffffffffffffffffffffffffffffffffff021916908373ffffffffffffffffffffffffffffffffffffffff16021790555050505050506105c88061019e6000396000f30060606040526004361061008e576000357c0100000000000000000000000000000000000000000000000000000000900463ffffffff1680632c4e722e146100995780633197cbb6146100c25780634042b66f146100eb578063521eb2731461011457806378e9792514610169578063ec8ac4d814610192578063ecb70fb7146101c0578063fc0c546a146101ed575b61009733610242565b005b34156100a457600080fd5b6100ac61041f565b6040518082815260200191505060405180910390f35b34156100cd57600080fd5b6100d5610425565b6040518082815260200191505060405180910390f35b34156100f657600080fd5b6100fe61042b565b6040518082815260200191505060405180910390f35b341561011f57600080fd5b610127610431565b604051808273ffffffffffffffffffffffffffffffffffffffff1673ffffffffffffffffffffffffffffffffffffffff16815260200191505060405180910390f35b341561017457600080fd5b61017c610457565b6040518082815260200191505060405180910390f35b6101be600480803573ffffffffffffffffffffffffffffffffffffffff16906020019091905050610242565b005b34156101cb57600080fd5b6101d361045d565b604051808215151515815260200191505060405180910390f35b34156101f857600080fd5b610200610469565b604051808273ffffffffffffffffffffffffffffffffffffffff1673ffffffffffffffffffffffffffffffffffffffff16815260200191505060405180910390f35b600080600073ffffffffffffffffffffffffffffffffffffffff168373ffffffffffffffffffffffffffffffffffffffff161415151561028157600080fd5b61028961048e565b151561029457600080fd5b3491506102a0826104c1565b90506102b7826005546104df90919063ffffffff16565b6005819055506000809054906101000a900473ffffffffffffffffffffffffffffffffffffffff1673ffffffffffffffffffffffffffffffffffffffff166340c10f1984836000604051602001526040518363ffffffff167c0100000000000000000000000000000000000000000000000000000000028152600401808373ffffffffffffffffffffffffffffffffffffffff1673ffffffffffffffffffffffffffffffffffffffff16815260200182815260200192505050602060405180830381600087803b151561038957600080fd5b6102c65a03f1151561039a57600080fd5b50505060405180519050508273ffffffffffffffffffffffffffffffffffffffff163373ffffffffffffffffffffffffffffffffffffffff167f623b3804fa71d67900d064613da8f94b9617215ee90799290593e1745087ad188484604051808381526020018281526020019250505060405180910390a361041a6104fd565b505050565b60045481565b60025481565b60055481565b600360009054906101000a900473ffffffffffffffffffffffffffffffffffffffff1681565b60015481565b60006002544211905090565b6000809054906101000a900473ffffffffffffffffffffffffffffffffffffffff1681565b600080600060015442101580156104a757506002544211155b9150600034141590508180156104ba5750805b9250505090565b60006104d86004548361056190919063ffffffff16565b9050919050565b60008082840190508381101515156104f357fe5b8091505092915050565b600360009054906101000a900473ffffffffffffffffffffffffffffffffffffffff1673ffffffffffffffffffffffffffffffffffffffff166108fc349081150290604051600060405180830381858888f19350505050151561055f57600080fd5b565b60008060008414156105765760009150610595565b828402905082848281151561058757fe5b0414151561059157fe5b8091505b50929150505600a165627a7a72305820cac073e8dd8d228d226f58103a867d2626c3558af946ff7bf1e4d506c56006920029",
  "source": "pragma solidity ^0.4.18;\n\nimport \"../token/ERC20/MintableToken.sol\";\nimport \"../math/SafeMath.sol\";\n\n\n/**\n * @title Crowdsale\n * @dev Crowdsale is a base contract for managing a token crowdsale.\n * Crowdsales have a start and end timestamps, where investors can make\n * token purchases and the crowdsale will assign them tokens based\n * on a token per ETH rate. Funds collected are forwarded to a wallet\n * as they arrive. The contract requires a MintableToken that will be\n * minted as contributions arrive, note that the crowdsale contract\n * must be owner of the token in order to be able to mint it.\n */\ncontract Crowdsale {\n  using SafeMath for uint256;\n\n  // The token being sold\n  MintableToken public token;\n\n  // start and end timestamps where investments are allowed (both inclusive)\n  uint256 public startTime;\n  uint256 public endTime;\n\n  // address where funds are collected\n  address public wallet;\n\n  // how many token units a buyer gets per wei\n  uint256 public rate;\n\n  // amount of raised money in wei\n  uint256 public weiRaised;\n\n  /**\n   * event for token purchase logging\n   * @param purchaser who paid for the tokens\n   * @param beneficiary who got the tokens\n   * @param value weis paid for purchase\n   * @param amount amount of tokens purchased\n   */\n  event TokenPurchase(address indexed purchaser, address indexed beneficiary, uint256 value, uint256 amount);\n\n\n  function Crowdsale(uint256 _startTime, uint256 _endTime, uint256 _rate, address _wallet, MintableToken _token) public {\n    require(_startTime >= now);\n    require(_endTime >= _startTime);\n    require(_rate > 0);\n    require(_wallet != address(0));\n    require(_token != address(0));\n\n    startTime = _startTime;\n    endTime = _endTime;\n    rate = _rate;\n    wallet = _wallet;\n    token = _token;\n  }\n\n  // fallback function can be used to buy tokens\n  function () external payable {\n    buyTokens(msg.sender);\n  }\n\n  // low level token purchase function\n  function buyTokens(address beneficiary) public payable {\n    require(beneficiary != address(0));\n    require(validPurchase());\n\n    uint256 weiAmount = msg.value;\n\n    // calculate token amount to be created\n    uint256 tokens = getTokenAmount(weiAmount);\n\n    // update state\n    weiRaised = weiRaised.add(weiAmount);\n\n    token.mint(beneficiary, tokens);\n    TokenPurchase(msg.sender, beneficiary, weiAmount, tokens);\n\n    forwardFunds();\n  }\n\n  // @return true if crowdsale event has ended\n  function hasEnded() public view returns (bool) {\n    return now > endTime;\n  }\n\n  // Override this method to have a way to add business logic to your crowdsale when buying\n  function getTokenAmount(uint256 weiAmount) internal view returns(uint256) {\n    return weiAmount.mul(rate);\n  }\n\n  // send ether to the fund collection wallet\n  // override to create custom fund forwarding mechanisms\n  function forwardFunds() internal {\n    wallet.transfer(msg.value);\n  }\n\n  // @return true if the transaction can buy tokens\n  function validPurchase() internal view returns (bool) {\n    bool withinPeriod = now >= startTime && now <= endTime;\n    bool nonZeroPurchase = msg.value != 0;\n    return withinPeriod && nonZeroPurchase;\n  }\n\n}\n",
  "sourcePath": "zeppelin-solidity/contracts/crowdsale/Crowdsale.sol",
  "compiler": {
    "name": "solc",
    "version": "0.4.18+commit.9cf6e910.Emscripten.clang"
  },
  "schemaVersion": "1.0.1",
  "updatedAt": "2018-03-23T19:06:23.057Z"
}