{
  "contractName": "MeshCrowdsale",
  "abi": [
    {
      "constant": true,
      "inputs": [],
      "name": "mintingFinished",
      "outputs": [
        {
          "name": "",
          "type": "bool"
        }
      ],
      "payable": false,
      "stateMutability": "view",
      "type": "function"
    },
    {
      "constant": true,
      "inputs": [
        {
          "name": "",
          "type": "address"
        }
      ],
      "name": "whitelistingAgents",
      "outputs": [
        {
          "name": "",
          "type": "bool"
        }
      ],
      "payable": false,
      "stateMutability": "view",
      "type": "function"
    },
    {
      "constant": true,
      "inputs": [
        {
          "name": "",
          "type": "address"
        }
      ],
      "name": "weiLimits",
      "outputs": [
        {
          "name": "",
          "type": "uint256"
        }
      ],
      "payable": false,
      "stateMutability": "view",
      "type": "function"
    },
    {
      "constant": true,
      "inputs": [
        {
          "name": "",
          "type": "address"
        }
      ],
      "name": "weiContributions",
      "outputs": [
        {
          "name": "",
          "type": "uint256"
        }
      ],
      "payable": false,
      "stateMutability": "view",
      "type": "function"
    },
    {
      "constant": true,
      "inputs": [],
      "name": "rate",
      "outputs": [
        {
          "name": "",
          "type": "uint256"
        }
      ],
      "payable": false,
      "stateMutability": "view",
      "type": "function"
    },
    {
      "constant": true,
      "inputs": [],
      "name": "endTime",
      "outputs": [
        {
          "name": "",
          "type": "uint256"
        }
      ],
      "payable": false,
      "stateMutability": "view",
      "type": "function"
    },
    {
      "constant": false,
      "inputs": [
        {
          "name": "_rate",
          "type": "uint256"
        }
      ],
      "name": "setRate",
      "outputs": [],
      "payable": false,
      "stateMutability": "nonpayable",
      "type": "function"
    },
    {
      "constant": true,
      "inputs": [],
      "name": "cap",
      "outputs": [
        {
          "name": "",
          "type": "uint256"
        }
      ],
      "payable": false,
      "stateMutability": "view",
      "type": "function"
    },
    {
      "constant": true,
      "inputs": [],
      "name": "weiRaised",
      "outputs": [
        {
          "name": "",
          "type": "uint256"
        }
      ],
      "payable": false,
      "stateMutability": "view",
      "type": "function"
    },
    {
      "constant": false,
      "inputs": [],
      "name": "transferTokenOwnership",
      "outputs": [],
      "payable": false,
      "stateMutability": "nonpayable",
      "type": "function"
    },
    {
      "constant": false,
      "inputs": [
        {
          "name": "_cap",
          "type": "uint256"
        }
      ],
      "name": "setCap",
      "outputs": [],
      "payable": false,
      "stateMutability": "nonpayable",
      "type": "function"
    },
    {
      "constant": true,
      "inputs": [],
      "name": "wallet",
      "outputs": [
        {
          "name": "",
          "type": "address"
        }
      ],
      "payable": false,
      "stateMutability": "view",
      "type": "function"
    },
    {
      "constant": false,
      "inputs": [
        {
          "name": "_addresses",
          "type": "address[]"
        },
        {
          "name": "_weiLimit",
          "type": "uint256"
        }
      ],
      "name": "setLimit",
      "outputs": [],
      "payable": false,
      "stateMutability": "nonpayable",
      "type": "function"
    },
    {
      "constant": true,
      "inputs": [],
      "name": "startTime",
      "outputs": [
        {
          "name": "",
          "type": "uint256"
        }
      ],
      "payable": false,
      "stateMutability": "view",
      "type": "function"
    },
    {
      "constant": true,
      "inputs": [],
      "name": "owner",
      "outputs": [
        {
          "name": "",
          "type": "address"
        }
      ],
      "payable": false,
      "stateMutability": "view",
      "type": "function"
    },
    {
      "constant": true,
      "inputs": [],
      "name": "minimumContribution",
      "outputs": [
        {
          "name": "",
          "type": "uint256"
        }
      ],
      "payable": false,
      "stateMutability": "view",
      "type": "function"
    },
    {
      "constant": false,
      "inputs": [],
      "name": "mintPredefinedTokens",
      "outputs": [],
      "payable": false,
      "stateMutability": "nonpayable",
      "type": "function"
    },
    {
      "constant": false,
      "inputs": [
        {
          "name": "_minimumContribution",
          "type": "uint256"
        }
      ],
      "name": "setMinimumContribution",
      "outputs": [],
      "payable": false,
      "stateMutability": "nonpayable",
      "type": "function"
    },
    {
      "constant": false,
      "inputs": [
        {
          "name": "_address",
          "type": "address"
        },
        {
          "name": "_value",
          "type": "bool"
        }
      ],
      "name": "setWhitelistingAgent",
      "outputs": [],
      "payable": false,
      "stateMutability": "nonpayable",
      "type": "function"
    },
    {
      "constant": false,
      "inputs": [
        {
          "name": "beneficiary",
          "type": "address"
        }
      ],
      "name": "buyTokens",
      "outputs": [],
      "payable": true,
      "stateMutability": "payable",
      "type": "function"
    },
    {
      "constant": true,
      "inputs": [],
      "name": "hasEnded",
      "outputs": [
        {
          "name": "",
          "type": "bool"
        }
      ],
      "payable": false,
      "stateMutability": "view",
      "type": "function"
    },
    {
      "constant": true,
      "inputs": [
        {
          "name": "",
          "type": "uint256"
        }
      ],
      "name": "beneficiaries",
      "outputs": [
        {
          "name": "",
          "type": "address"
        }
      ],
      "payable": false,
      "stateMutability": "view",
      "type": "function"
    },
    {
      "constant": false,
      "inputs": [
        {
          "name": "newOwner",
          "type": "address"
        }
      ],
      "name": "transferOwnership",
      "outputs": [],
      "payable": false,
      "stateMutability": "nonpayable",
      "type": "function"
    },
    {
      "constant": true,
      "inputs": [
        {
          "name": "",
          "type": "uint256"
        }
      ],
      "name": "beneficiaryAmounts",
      "outputs": [
        {
          "name": "",
          "type": "uint256"
        }
      ],
      "payable": false,
      "stateMutability": "view",
      "type": "function"
    },
    {
      "constant": true,
      "inputs": [],
      "name": "token",
      "outputs": [
        {
          "name": "",
          "type": "address"
        }
      ],
      "payable": false,
      "stateMutability": "view",
      "type": "function"
    },
    {
      "inputs": [
        {
          "name": "_startTime",
          "type": "uint256"
        },
        {
          "name": "_endTime",
          "type": "uint256"
        },
        {
          "name": "_rate",
          "type": "uint256"
        },
        {
          "name": "_wallet",
          "type": "address"
        },
        {
          "name": "_cap",
          "type": "uint256"
        },
        {
          "name": "_minimumContribution",
          "type": "uint256"
        },
        {
          "name": "_token",
          "type": "address"
        },
        {
          "name": "_beneficiaries",
          "type": "address[]"
        },
        {
          "name": "_beneficiaryAmounts",
          "type": "uint256[]"
        }
      ],
      "payable": false,
      "stateMutability": "nonpayable",
      "type": "constructor"
    },
    {
      "payable": true,
      "stateMutability": "payable",
      "type": "fallback"
    },
    {
      "anonymous": false,
      "inputs": [
        {
          "indexed": true,
          "name": "previousOwner",
          "type": "address"
        },
        {
          "indexed": true,
          "name": "newOwner",
          "type": "address"
        }
      ],
      "name": "OwnershipTransferred",
      "type": "event"
    },
    {
      "anonymous": false,
      "inputs": [
        {
          "indexed": true,
          "name": "purchaser",
          "type": "address"
        },
        {
          "indexed": true,
          "name": "beneficiary",
          "type": "address"
        },
        {
          "indexed": false,
          "name": "value",
          "type": "uint256"
        },
        {
          "indexed": false,
          "name": "amount",
          "type": "uint256"
        }
      ],
      "name": "TokenPurchase",
      "type": "event"
    }
  ],
  "bytecode": "0x606060405234156200001057600080fd5b60405162001ab838038062001ab8833981016040528080519060200190919080519060200190919080519060200190919080519060200190919080519060200190919080519060200190919080519060200190919080518201919060200180518201919050508489898989874285101515156200008c57600080fd5b8484101515156200009c57600080fd5b600083111515620000ac57600080fd5b600073ffffffffffffffffffffffffffffffffffffffff168273ffffffffffffffffffffffffffffffffffffffff1614151515620000e957600080fd5b600073ffffffffffffffffffffffffffffffffffffffff168173ffffffffffffffffffffffffffffffffffffffff16141515156200012657600080fd5b84600181905550836002819055508260048190555081600360006101000a81548173ffffffffffffffffffffffffffffffffffffffff021916908373ffffffffffffffffffffffffffffffffffffffff160217905550806000806101000a81548173ffffffffffffffffffffffffffffffffffffffff021916908373ffffffffffffffffffffffffffffffffffffffff1602179055505050505050600081111515620001d157600080fd5b806006819055505033600760006101000a81548173ffffffffffffffffffffffffffffffffffffffff021916908373ffffffffffffffffffffffffffffffffffffffff160217905550805182511415156200022b57600080fd5b81600c9080519060200190620002439291906200028e565b5080600d90805190602001906200025c9291906200031d565b506000600e60006101000a81548160ff02191690831515021790555083600b81905550505050505050505050620003dd565b8280548282559060005260206000209081019282156200030a579160200282015b82811115620003095782518260006101000a81548173ffffffffffffffffffffffffffffffffffffffff021916908373ffffffffffffffffffffffffffffffffffffffff16021790555091602001919060010190620002af565b5b5090506200031991906200036f565b5090565b8280548282559060005260206000209081019282156200035c579160200282015b828111156200035b5782518255916020019190600101906200033e565b5b5090506200036b9190620003b5565b5090565b620003b291905b80821115620003ae57600081816101000a81549073ffffffffffffffffffffffffffffffffffffffff02191690555060010162000376565b5090565b90565b620003da91905b80821115620003d6576000816000905550600101620003bc565b5090565b90565b6116cb80620003ed6000396000f300606060405260043610610149576000357c0100000000000000000000000000000000000000000000000000000000900463ffffffff16806305d2035b1461015457806307c2260a146101815780631a864a1a146101d257806325d18e311461021f5780632c4e722e1461026c5780633197cbb61461029557806334fcf437146102be578063355274ea146102e15780634042b66f1461030a5780634056675e1461033357806347786d3714610348578063521eb2731461036b57806378984793146103c057806378e97925146103f75780638da5cb5b14610420578063937e09b11461047557806395ed857c1461049e578063dba3e704146104b3578063e9985198146104d6578063ec8ac4d81461051a578063ecb70fb714610548578063efeb5e5814610575578063f2fde38b146105d8578063f57ffd2214610611578063fc0c546a14610648575b6101523361069d565b005b341561015f57600080fd5b61016761073e565b604051808215151515815260200191505060405180910390f35b341561018c57600080fd5b6101b8600480803573ffffffffffffffffffffffffffffffffffffffff16906020019091905050610751565b604051808215151515815260200191505060405180910390f35b34156101dd57600080fd5b610209600480803573ffffffffffffffffffffffffffffffffffffffff16906020019091905050610771565b6040518082815260200191505060405180910390f35b341561022a57600080fd5b610256600480803573ffffffffffffffffffffffffffffffffffffffff16906020019091905050610789565b6040518082815260200191505060405180910390f35b341561027757600080fd5b61027f6107a1565b6040518082815260200191505060405180910390f35b34156102a057600080fd5b6102a86107a7565b6040518082815260200191505060405180910390f35b34156102c957600080fd5b6102df60048080359060200190919050506107ad565b005b34156102ec57600080fd5b6102f4610841565b6040518082815260200191505060405180910390f35b341561031557600080fd5b61031d610847565b6040518082815260200191505060405180910390f35b341561033e57600080fd5b61034661084d565b005b341561035357600080fd5b610369600480803590602001909190505061099c565b005b341561037657600080fd5b61037e610a30565b604051808273ffffffffffffffffffffffffffffffffffffffff1673ffffffffffffffffffffffffffffffffffffffff16815260200191505060405180910390f35b34156103cb57600080fd5b6103f560048080359060200190820180359060200191909192908035906020019091905050610a56565b005b341561040257600080fd5b61040a610b96565b6040518082815260200191505060405180910390f35b341561042b57600080fd5b610433610b9c565b604051808273ffffffffffffffffffffffffffffffffffffffff1673ffffffffffffffffffffffffffffffffffffffff16815260200191505060405180910390f35b341561048057600080fd5b610488610bc2565b6040518082815260200191505060405180910390f35b34156104a957600080fd5b6104b1610bc8565b005b34156104be57600080fd5b6104d46004808035906020019091905050610f61565b005b34156104e157600080fd5b610518600480803573ffffffffffffffffffffffffffffffffffffffff169060200190919080351515906020019091905050610fc7565b005b610546600480803573ffffffffffffffffffffffffffffffffffffffff1690602001909190505061069d565b005b341561055357600080fd5b61055b61107e565b604051808215151515815260200191505060405180910390f35b341561058057600080fd5b61059660048080359060200190919050506110a1565b604051808273ffffffffffffffffffffffffffffffffffffffff1673ffffffffffffffffffffffffffffffffffffffff16815260200191505060405180910390f35b34156105e357600080fd5b61060f600480803573ffffffffffffffffffffffffffffffffffffffff169060200190919050506110e0565b005b341561061c57600080fd5b6106326004808035906020019091905050611238565b6040518082815260200191505060405180910390f35b341561065357600080fd5b61065b61125c565b604051808273ffffffffffffffffffffffffffffffffffffffff1673ffffffffffffffffffffffffffffffffffffffff16815260200191505060405180910390f35b6106ef34600960003373ffffffffffffffffffffffffffffffffffffffff1673ffffffffffffffffffffffffffffffffffffffff1681526020019081526020016000205461128190919063ffffffff16565b600960003373ffffffffffffffffffffffffffffffffffffffff1673ffffffffffffffffffffffffffffffffffffffff1681526020019081526020016000208190555061073b8161129f565b50565b600e60009054906101000a900460ff1681565b600a6020528060005260406000206000915054906101000a900460ff1681565b60086020528060005260406000206000915090505481565b60096020528060005260406000206000915090505481565b60045481565b60025481565b600760009054906101000a900473ffffffffffffffffffffffffffffffffffffffff1673ffffffffffffffffffffffffffffffffffffffff163373ffffffffffffffffffffffffffffffffffffffff1614151561080957600080fd5b600060055414801561081d57506001544211155b151561082857600080fd5b60008111151561083757600080fd5b8060048190555050565b60065481565b60055481565b600760009054906101000a900473ffffffffffffffffffffffffffffffffffffffff1673ffffffffffffffffffffffffffffffffffffffff163373ffffffffffffffffffffffffffffffffffffffff161415156108a957600080fd5b6000809054906101000a900473ffffffffffffffffffffffffffffffffffffffff1673ffffffffffffffffffffffffffffffffffffffff1663f2fde38b600760009054906101000a900473ffffffffffffffffffffffffffffffffffffffff166040518263ffffffff167c0100000000000000000000000000000000000000000000000000000000028152600401808273ffffffffffffffffffffffffffffffffffffffff1673ffffffffffffffffffffffffffffffffffffffff168152602001915050600060405180830381600087803b151561098657600080fd5b6102c65a03f1151561099757600080fd5b505050565b600760009054906101000a900473ffffffffffffffffffffffffffffffffffffffff1673ffffffffffffffffffffffffffffffffffffffff163373ffffffffffffffffffffffffffffffffffffffff161415156109f857600080fd5b6000600554148015610a0c57506001544211155b1515610a1757600080fd5b600081111515610a2657600080fd5b8060068190555050565b600360009054906101000a900473ffffffffffffffffffffffffffffffffffffffff1681565b60008060011515600a60003373ffffffffffffffffffffffffffffffffffffffff1673ffffffffffffffffffffffffffffffffffffffff16815260200190815260200160002060009054906101000a900460ff161515141515610ab857600080fd5b600091505b84849050821015610b8f578484838181101515610ad657fe5b9050602002013573ffffffffffffffffffffffffffffffffffffffff169050600960008273ffffffffffffffffffffffffffffffffffffffff1673ffffffffffffffffffffffffffffffffffffffff1681526020019081526020016000205483101515610b825782600860008373ffffffffffffffffffffffffffffffffffffffff1673ffffffffffffffffffffffffffffffffffffffff168152602001908152602001600020819055505b8180600101925050610abd565b5050505050565b60015481565b600760009054906101000a900473ffffffffffffffffffffffffffffffffffffffff1681565b600b5481565b6000600760009054906101000a900473ffffffffffffffffffffffffffffffffffffffff1673ffffffffffffffffffffffffffffffffffffffff163373ffffffffffffffffffffffffffffffffffffffff16141515610c2657600080fd5b600e60009054906101000a900460ff16151515610c4257600080fd5b6000600554111515610c5357600080fd5b600090505b600c80549050811015610f4357600073ffffffffffffffffffffffffffffffffffffffff16600c82815481101515610c8c57fe5b906000526020600020900160009054906101000a900473ffffffffffffffffffffffffffffffffffffffff1673ffffffffffffffffffffffffffffffffffffffff1614158015610df4575060008060009054906101000a900473ffffffffffffffffffffffffffffffffffffffff1673ffffffffffffffffffffffffffffffffffffffff166370a08231600c84815481101515610d2557fe5b906000526020600020900160009054906101000a900473ffffffffffffffffffffffffffffffffffffffff166000604051602001526040518263ffffffff167c0100000000000000000000000000000000000000000000000000000000028152600401808273ffffffffffffffffffffffffffffffffffffffff1673ffffffffffffffffffffffffffffffffffffffff168152602001915050602060405180830381600087803b1515610dd757600080fd5b6102c65a03f11515610de857600080fd5b50505060405180519050145b15610f36576000809054906101000a900473ffffffffffffffffffffffffffffffffffffffff1673ffffffffffffffffffffffffffffffffffffffff166340c10f19600c83815481101515610e4557fe5b906000526020600020900160009054906101000a900473ffffffffffffffffffffffffffffffffffffffff16600d84815481101515610e8057fe5b9060005260206000209001546000604051602001526040518363ffffffff167c0100000000000000000000000000000000000000000000000000000000028152600401808373ffffffffffffffffffffffffffffffffffffffff1673ffffffffffffffffffffffffffffffffffffffff16815260200182815260200192505050602060405180830381600087803b1515610f1957600080fd5b6102c65a03f11515610f2a57600080fd5b50505060405180519050505b8080600101915050610c58565b6001600e60006101000a81548160ff02191690831515021790555050565b600760009054906101000a900473ffffffffffffffffffffffffffffffffffffffff1673ffffffffffffffffffffffffffffffffffffffff163373ffffffffffffffffffffffffffffffffffffffff16141515610fbd57600080fd5b80600b8190555050565b600760009054906101000a900473ffffffffffffffffffffffffffffffffffffffff1673ffffffffffffffffffffffffffffffffffffffff163373ffffffffffffffffffffffffffffffffffffffff1614151561102357600080fd5b80600a60008473ffffffffffffffffffffffffffffffffffffffff1673ffffffffffffffffffffffffffffffffffffffff16815260200190815260200160002060006101000a81548160ff0219169083151502179055505050565b60008060065460055410159050808061109b575061109a61147c565b5b91505090565b600c818154811015156110b057fe5b90600052602060002090016000915054906101000a900473ffffffffffffffffffffffffffffffffffffffff1681565b600760009054906101000a900473ffffffffffffffffffffffffffffffffffffffff1673ffffffffffffffffffffffffffffffffffffffff163373ffffffffffffffffffffffffffffffffffffffff1614151561113c57600080fd5b600073ffffffffffffffffffffffffffffffffffffffff168173ffffffffffffffffffffffffffffffffffffffff161415151561117857600080fd5b8073ffffffffffffffffffffffffffffffffffffffff16600760009054906101000a900473ffffffffffffffffffffffffffffffffffffffff1673ffffffffffffffffffffffffffffffffffffffff167f8be0079c531659141344cd1fd0a4f28419497f9722a3daafe3b4186f6b6457e060405160405180910390a380600760006101000a81548173ffffffffffffffffffffffffffffffffffffffff021916908373ffffffffffffffffffffffffffffffffffffffff16021790555050565b600d8181548110151561124757fe5b90600052602060002090016000915090505481565b6000809054906101000a900473ffffffffffffffffffffffffffffffffffffffff1681565b600080828401905083811015151561129557fe5b8091505092915050565b600080600073ffffffffffffffffffffffffffffffffffffffff168373ffffffffffffffffffffffffffffffffffffffff16141515156112de57600080fd5b6112e6611488565b15156112f157600080fd5b3491506112fd82611579565b90506113148260055461128190919063ffffffff16565b6005819055506000809054906101000a900473ffffffffffffffffffffffffffffffffffffffff1673ffffffffffffffffffffffffffffffffffffffff166340c10f1984836000604051602001526040518363ffffffff167c0100000000000000000000000000000000000000000000000000000000028152600401808373ffffffffffffffffffffffffffffffffffffffff1673ffffffffffffffffffffffffffffffffffffffff16815260200182815260200192505050602060405180830381600087803b15156113e657600080fd5b6102c65a03f115156113f757600080fd5b50505060405180519050508273ffffffffffffffffffffffffffffffffffffffff163373ffffffffffffffffffffffffffffffffffffffff167f623b3804fa71d67900d064613da8f94b9617215ee90799290593e1745087ad188484604051808381526020018281526020019250505060405180910390a3611477611597565b505050565b60006002544211905090565b6000806000600860003373ffffffffffffffffffffffffffffffffffffffff1673ffffffffffffffffffffffffffffffffffffffff16815260200190815260200160002054600960003373ffffffffffffffffffffffffffffffffffffffff1673ffffffffffffffffffffffffffffffffffffffff1681526020019081526020016000205411159150600b54600960003373ffffffffffffffffffffffffffffffffffffffff1673ffffffffffffffffffffffffffffffffffffffff16815260200190815260200160002054101590508080156115625750815b801561157257506115716115fb565b5b9250505090565b60006115906004548361163190919063ffffffff16565b9050919050565b600360009054906101000a900473ffffffffffffffffffffffffffffffffffffffff1673ffffffffffffffffffffffffffffffffffffffff166108fc349081150290604051600060405180830381858888f1935050505015156115f957600080fd5b565b6000806006546116163460055461128190919063ffffffff16565b1115905080801561162b575061162a61166c565b5b91505090565b60008060008414156116465760009150611665565b828402905082848281151561165757fe5b0414151561166157fe5b8091505b5092915050565b6000806000600154421015801561168557506002544211155b9150600034141590508180156116985750805b92505050905600a165627a7a723058203f584defda103fd70c77559411924722e500ce945ffbc87b88e4d095fb6c60f50029",
  "source": "pragma solidity ^0.4.18;\n\nimport './MeshToken.sol';\nimport 'zeppelin-solidity/contracts/crowdsale/CappedCrowdsale.sol';\nimport 'zeppelin-solidity/contracts/math/SafeMath.sol';\nimport 'zeppelin-solidity/contracts/ownership/Ownable.sol';\n\n\n/**\n * CappedCrowdsale limits the total number of wei that can be collected in the sale.\n */\ncontract MeshCrowdsale is CappedCrowdsale, Ownable {\n\n  using SafeMath for uint256;\n\n  /**\n   * @dev weiLimits keeps track of amount of wei that can be contibuted by an address.\n   */\n  mapping (address => uint256) public weiLimits;\n\n  /**\n   * @dev weiContributions keeps track of amount of wei that are contibuted by an address.\n   */\n  mapping (address => uint256) public weiContributions;\n\n  /**\n   * @dev whitelistingAgents keeps track of who is allowed to call the setLimit method\n   */\n  mapping (address => bool) public whitelistingAgents;\n\n  /**\n   * @dev minimumContribution keeps track of what should be the minimum contribution required per address\n   */\n  uint256 public minimumContribution;\n\n  /**\n   * @dev variable to keep track of beneficiaries for which we need to mint the tokens directly\n   */\n  address[] public beneficiaries;\n\n  /**\n   * @dev variable to keep track of amount of tokens to mint for beneficiaries\n   */\n  uint256[] public beneficiaryAmounts;\n\n  /**\n   * @dev variable to keep track of if predefined tokens have been minted\n   */\n  bool public mintingFinished;\n  /*---------------------------------constructor---------------------------------*/\n\n  /**\n   * @dev Constructor for MeshCrowdsale contract\n   */\n  function MeshCrowdsale(uint256 _startTime, uint256 _endTime, uint256 _rate, address _wallet, uint256 _cap, uint256 _minimumContribution, MeshToken _token, address[] _beneficiaries, uint256[] _beneficiaryAmounts)\n  CappedCrowdsale(_cap)\n  Crowdsale(_startTime, _endTime, _rate, _wallet, _token)\n  public\n  {\n    require(_beneficiaries.length == _beneficiaryAmounts.length);\n    beneficiaries = _beneficiaries;\n    beneficiaryAmounts = _beneficiaryAmounts;\n    mintingFinished = false;\n\n    minimumContribution = _minimumContribution;\n  }\n\n  /*---------------------------------overridden methods---------------------------------*/\n\n  /**\n   * overriding Crowdsale#buyTokens to keep track of wei contributed per address\n   */\n  function buyTokens(address beneficiary) public payable {\n    weiContributions[msg.sender] = weiContributions[msg.sender].add(msg.value);\n    super.buyTokens(beneficiary);\n  }\n\n  /**\n   * overriding CappedCrowdsale#validPurchase to add extra contribution limit logic\n   * @return true if investors can buy at the moment\n   */\n  function validPurchase() internal view returns (bool) {\n    bool withinLimit = weiContributions[msg.sender] <= weiLimits[msg.sender];\n    bool atleastMinimumContribution = weiContributions[msg.sender] >= minimumContribution;\n    return atleastMinimumContribution && withinLimit && super.validPurchase();\n  }\n\n\n\n  /*---------------------------------new methods---------------------------------*/\n\n\n  /**\n   * @dev Allows owner to add / remove whitelistingAgents\n   * @param _address that is being allowed or removed from whitelisting addresses\n   * @param _value boolean indicating if address is whitelisting agent or not\n   */\n  function setWhitelistingAgent(address _address, bool _value) external onlyOwner {\n    whitelistingAgents[_address] = _value;\n  }\n\n  /**\n   * @dev Allows the current owner to update contribution limits\n   * @param _addresses whose contribution limits should be changed\n   * @param _weiLimit new contribution limit\n   */\n  function setLimit(address[] _addresses, uint256 _weiLimit) external {\n    require(whitelistingAgents[msg.sender] == true);\n\n    for (uint i = 0; i < _addresses.length; i++) {\n      address _address = _addresses[i];\n\n      // only allow changing the limit to be greater than current contribution\n      if(_weiLimit >= weiContributions[_address]) {\n        weiLimits[_address] = _weiLimit;\n      }\n    }\n  }\n\n  /**\n   * @dev Allows the current owner to change the ETH to token generation rate.\n   * @param _rate indicating the new token generation rate.\n   */\n  function setRate(uint256 _rate) external onlyOwner {\n    // make sure the crowdsale has not started\n    require(weiRaised == 0 && now <= startTime);\n\n    // make sure new rate is greater than 0\n    require(_rate > 0);\n\n    rate = _rate;\n  }\n\n\n  /**\n   * @dev Allows the current owner to change the crowdsale cap.\n   * @param _cap indicating the new crowdsale cap.\n   */\n  function setCap(uint256 _cap) external onlyOwner {\n    // make sure the crowdsale has not started\n    require(weiRaised == 0 && now <= startTime);\n\n    // make sure new cap is greater than 0\n    require(_cap > 0);\n\n    cap = _cap;\n  }\n\n  /**\n   * @dev Allows the current owner to change the required minimum contribution.\n   * @param _minimumContribution indicating the minimum required contribution.\n   */\n  function setMinimumContribution(uint256 _minimumContribution) external onlyOwner {\n    minimumContribution = _minimumContribution;\n  }\n\n  /*\n   * @dev Function to perform minting to predefined beneficiaries once crowdsale has started\n   * can be called by only once and by owner only\n   */\n  function mintPredefinedTokens() external onlyOwner {\n    // prevent owner from minting twice\n    require(!mintingFinished);\n\n    // make sure the crowdsale has started\n    require(weiRaised > 0);\n\n    // loop through the list and call mint on token directly\n    // this minting does not affect any crowdsale numbers\n    for (uint i = 0; i < beneficiaries.length; i++) {\n      if (beneficiaries[i] != address(0) && token.balanceOf(beneficiaries[i]) == 0) {\n        token.mint(beneficiaries[i], beneficiaryAmounts[i]);\n      }\n    }\n    // set it at the end, making sure all transactions have been completed with the gas\n    mintingFinished = true;\n  }\n\n  /*---------------------------------proxy methods for token when owned by contract---------------------------------*/\n  /**\n   * @dev Allows the current owner to transfer token control back to contract owner\n   */\n  function transferTokenOwnership() external onlyOwner {\n    token.transferOwnership(owner);\n  }\n}\n",
  "sourcePath": "/home/igor/Projects/RM/Smart Contracts/tge/rightmesh/contracts/MeshCrowdsale.sol",
  "compiler": {
    "name": "solc",
    "version": "0.4.18+commit.9cf6e910.Emscripten.clang"
  },
  "schemaVersion": "1.0.1",
  "updatedAt": "2018-03-23T19:06:23.052Z"
}